:0A186400000102020303040405055D
:10100E00901E401212BC00000000C203C200C202B9
:10101E00C20112188C120080901E5774E0F0A37457
:10102E0000F0901E5F74E0F0A37420F0901E5574D3
:10103E00E0F0A37430F0901E5D74E0F0A37462F0E3
:10104E00901E6174E0F0A37494F090E680E030E7B7
:10105E0020901E55E0FFA3E0901E59CFF0A3EFF0B5
:10106E00901E5DE0FFA3E0901E5BCFF0A3EFF0803B
:10107E001E901E5DE0FFA3E0901E59CFF0A3EFF08F
:10108E00901E55E0FFA3E0901E5BCFF0A3EFF0D2D1
:10109E00E843D82090E668E04409F090E65CE0442E
:1010AE003DF0D2AF90E680E054F7F0E490E670F0B9
:1010BE0090E671F090E672F000000090E60B74037B
:1010CE00F000000090E6047480F00000007401F05F
:1010DE0000000004F00000007404F000000074082A
:1010EE00F0000000E4F000000090E60174E3F0C2AE
:1010FE0003300105120C2DC201300329121899502C
:10110E0024C20312170F20001690E682E030E70487
:10111E00E020E1EF90E682E030E604E020E0E41229
:0A112E0016E312189B1212FF80C78F
:011138002294
:100C2D0090E6B9E07003020D12147003020DBB249F
:100C3D00FE7003020E5024FB7003020D0C147003A2
:100C4D00020D06147003020CFA147003020D002439
:100C5D00056003020EBC12189D4003020EC890E6FB
:100C6D00BBE024FE603414605724FD601A14603D0F
:100C7D002406706F901E57E090E6B3F0901E58E07A
:100C8D0090E6B4F0020EC8901E5FE090E6B3F090CF
:100C9D001E60E090E6B4F0020EC8901E59E090E69A
:100CAD00B3F0901E5AE090E6B4F0020EC8901E5BB1
:100CBD00E090E6B3F0901E5CE090E6B4F0020EC852
:100CCD0090E6BAE0FF12167EEA49600DEA90E6B3AF
:100CDD00F0E990E6B4F0020EC890E6A0E04401F011
:100CED00020EC890E6A0E04401F0020EC8121844AE
:100CFD00020EC8121878020EC812186E020EC81213
:100D0D001830020EC812189F4003020EC890E6B8A4
:100D1D00E0247F602B14603C24026003020DB1A21D
:100D2D0000E433FF25E0FFA202E4334F90E740F0EB
:100D3D00E4A3F090E68AF090E68B7402F0020EC800
:100D4D00E490E740F0A3F090E68AF090E68B740211
:100D5D00F0020EC890E6BCE0547EFF7E00E0D39416
:100D6D008040067C007D0180047C007D00EC4EFE01
:100D7D00ED4F2464F58274183EF583E493FF3395AB
:100D8D00E0FEEF24A1FFEE34E68F82F583E05401FF
:100D9D0090E740F0E4A3F090E68AF090E68B7402C1
:100DAD00F0020EC890E6A0E04401F0020EC8121841
:100DBD00A14003020EC890E6B8E024FE601D240297
:100DCD006003020EC890E6BAE0B40105C200020E3F
:100DDD00C890E6A0E04401F0020EC890E6BAE070BB
:100DED005990E6BCE0547EFF7E00E0D3948040062F
:100DFD007C007D0180047C007D00EC4EFEED4F24D7
:100E0D0064F58274183EF583E493FF3395E0FEEFAD
:100E1D0024A1FFEE34E68F82F583E054FEF090E6D8
:100E2D00BCE05480FF131313541FFFE0540F2F9099
:100E3D00E683F0E04420F0020EC890E6A0E0440105
:100E4D00F080781218A3507390E6B8E024FE60206D
:100E5D002402706790E6BAE0B40104D200805C9081
:100E6D00E6BAE06402605490E6A0E04401F0804BE5
:100E7D0090E6BCE0547EFF7E00E0D3948040067C7B
:100E8D00007D0180047C007D00EC4EFEED4F24645E
:100E9D00F58274183EF583E493FF3395E0FEEF245D
:100EAD00A1FFEE34E68F82F583E04401F0800C1251
:100EBD000900500790E6A0E04401F090E6A0E04460
:020ECD0080F0B3
:010ECF002200
:030033000218951B
:0418950053D8EF3203
:09188C00D2001217781218822212
:0112FF0022CC
:02189900D32258
:02189B00D32256
:02189D00D32254
:0A186E0090E6BAE0901E6BF0D32262
:10183000901E6BE090E740F0E490E68AF090E68B33
:0418400004F0D322BB
:0A18780090E6BAE0901E69F0D3225A
:10184400901E69E090E740F0E490E68AF090E68B21
:0418540004F0D322A7
:02189F00D32252
:0218A100D32250
:0218A300D3224E
:10090000901E6A7451F013E433901E6CF07F111244
:1009100017EC90E6B9E0FF1217EC90E6B9E0245E20
:10092000B40A004003020C2B90093675F003A4C5ED
:100930008325F0C58373020A0E020A0E0209AA0279
:1009400009540209700209900209DB020A01020936
:10095000B50209C8901E6CE090E740F0E490E68A8A
:10096000F090E68B04F090E6A0E04480F0020C2BBF
:1009700090E600E0FFC4540F90E740F0E490E68A70
:10098000F090E68B04F090E6A0E04480F0020C2B9F
:1009900090E740740FF0E490E68AF090E68B04F064
:1009A00090E6A0E04480F0020C2B90E6BAE0901EA6
:1009B0006AF0020C2B90E67AE054FEF0E490E68AAE
:1009C000F090E68BF0020C2B90E67AE04401F0E424
:1009D00090E68AF090E68BF0020C2B90E7407407CB
:1009E000F0E490E68AF090E68B04F090E6A0E04414
:1009F00080F07FE87E03121587D2041216B4020C31
:100A00002B901E6C7401F0901E6AE04401F090E699
:100A1000BAE0FF901E44E4F0A3EFF090E6BBE0FEE6
:100A2000901E44E04EF0A3E0F090E6BEE0FF901E82
:100A300046E4F0A3EFF090E6BFE0FE901E46E04EE5
:100A4000F0A3E0F090E6B8E064C06003020B6590AC
:100A50001E46E07002A3E07003020C2B90E6A0E0BB
:100A600020E1F9901E46E0FEA3E0FFC39440EE941F
:100A7000005008A3EEF0A3EFF08009901E48E4F0C8
:100A8000A37440F090E6B9E0245E6058146003025D
:100A90000B34E4901E4AF0A3F0901E48E0FEA3E061
:100AA000FFA3E0FCA3E0FDC39FEC9E4003020B34D8
:100AB000901E44E0FEA3E0F5828E832DF582E5834F
:100AC0003CF583E0FF901E4BE02440F582E434E7E0
:100AD000F583EFF0901E4BE004F07006901E4AE0A4
:100AE00004F080B5E4901E4AF0A3F0901E48E0FEAA
:100AF000A3E0FFC3901E4BE09F901E4AE09E501E55
:100B0000A3E02440F582E434E7F58374CDF0901E31
:100B10004BE004F07006901E4AE004F080CD901E79
:100B200044E0FEA3E0FF901E49E0FD7AE779407BB8
:100B300040121484E490E68AF0901E49E090E68B1F
:100B4000F0901E48E0FEA3E0FF901E45E02FF090DD
:100B50001E44E03EF0C3901E47E09FF0901E46E02A
:100B60009EF0020A4F90E6B8E064406003020C2B4E
:100B7000901E46E07002A3E07003020C2BE490E6A6
:100B80008AF090E68BF090E6A0E020E1F990E68B09
:100B9000E0FF901E48E4F0A3EFF090E6B9E0245E99
:100BA000604F147062E4901E4AF0A3F0901E48E07B
:100BB000FEA3E0FFA3E0FCA3E0FDC39FEC9E504733
:100BC000E02440F582E434E7F583E0FF901E44E042
:100BD000FAA3E0F5828A832DF582E5833CF583EF65
:100BE000F0901E4BE004F07006901E4AE004F08086
:100BF000BB901E44E0FEA3E0FF901E49E0FD7AE7B3
:100C000079407B4012153C901E48E0FEA3E0FF9027
:100C10001E45E02FF0901E44E03EF0C3901E47E0DA
:0C0C20009FF0901E46E09EF0020B70C397
:010C2C0022A5
:10179800C0E0C083C08290E6B5E04401F0D20153B6
:0F17A80091EF90E65D7401F0D082D083D0E032F3
:10180400C0E0C083C0825391EF90E65D7404F0D0D1
:0618140082D083D0E03217
:10181A00C0E0C083C0825391EF90E65D7402F0D0BD
:06182A0082D083D0E03201
:1013B800C0E0C083C082C0D075D000C00790E6806E
:1013C800E030E720901E55E0FFA3E0901E59CFF0D3
:1013D800A3EFF0901E5DE0FFA3E0901E5BCFF0A3AB
:1013E800EFF0801E901E5DE0FFA3E0901E59CFF045
:1013F800A3EFF0901E55E0FFA3E0901E5BCFF0A393
:10140800EFF05391EF90E65D7410F0D007D0D0D094
:0614180082D083D0E03217
:1017D400C0E0C083C082D2035391EF90E65D7408E9
:0817E400F0D082D083D0E03286
:10141E00C0E0C083C082C0D075D000C00790E68007
:10142E00E030E720901E55E0FFA3E0901E59CFF06C
:10143E00A3EFF0901E5DE0FFA3E0901E5BCFF0A344
:10144E00EFF0801E901E5DE0FFA3E0901E59CFF0DE
:10145E00A3EFF0901E55E0FFA3E0901E5BCFF0A32C
:10146E00EFF05391EF90E65D7420F0D007D0D0D01E
:06147E0082D083D0E032B1
:0118A5003210
:0118A600320F
:0118A700320E
:0118A800320D
:0118A900320C
:0118AA00320B
:0118AB00320A
:0118AC003209
:0118AD003208
:0118AE003207
:0118AF003206
:0118B0003205
:0118B1003204
:0118B2003203
:0118B3003202
:0118B4003201
:0118B5003200
:0118B60032FF
:0118B70032FE
:0118B80032FD
:0118B90032FC
:0118BA0032FB
:0118BB0032FA
:0118BC0032F9
:0118BD0032F8
:0118BE0032F7
:0118BF0032F6
:0118C00032F5
:0118C10032F4
:0118C20032F3
:0118C30032F2
:0118C40032F1
:0118C50032F0
:0118C60032EF
:0118C70032EE
:0118C80032ED
:0414E700AB07AA069F
:1014EB00E4FC901E6CE06011EAFF7E000CEE2452CF
:1014FB00F582E4341EF583EFF0EBAE040C74522E40
:10150B00F582E4341EF583EBF0AE040C74522EF529
:10151B0082E4341EF583EDF0901E6AE0FFAE04AD5D
:10152B00067A1E7B52121756901E6AE0FF12164661
:01153B00228D
:10153C00901E4CEEF0A3EFF0A3EDF0A3EAF0A3EBBA
:01154C00F0AE
:10154D00E4A3F0901E4EE0FF901E51E0FDC39F50AE
:10155D0028901E4CE475F0011212A6AFF0FE901EFD
:10156D004FE0FAA3E02DF582E43AF583E0FD121485
:09157D00E7901E51E004F080CA61
:011586002242
:10148400901E4CEEF0A3EFF0A3EDF0A3EAF0A3EB73
:01149400F067
:10149500E4FDA3F0901E6CE06014901E4CE0FF7E0E
:1014A500000DEE2452F582E4341EF583EFF0901E14
:1014B5004DE0FFAE050D74522EF582E4341EF58322
:1014C500EFF0901E6AE0FF7A1E7B52121756901EAF
:1014D5006AE0FF901E4EE0FDA3E0FAA3E0FB1217C1
:0114E50034D2
:0114E60022E3
:1016E30090E682E030E004E020E60B90E682E03012
:1016F300E119E030E71590E680E04401F07F147EC5
:0C1703000012158790E680E054FEF022F2
:10170F0090E682E044C0F090E681F043870100004C
:04171F0000000022A4
:1016B40030040990E680E0440AF0800790E680E078
:1016C4004408F07FDC7E0512158790E65D74FFF018
:0F16D40090E65FF05391EF90E680E054F7F0223C
:10158700901E4CEEF0A3EFF090E600E05418700DBB
:10159700901E4CE0C313F0A3E013F0801790E60011
:1015A700E05418FFBF100D901E4DE025E0F0901E8F
:1015B7004CE033F0901E4C74FFF5F01212A645F084
:0815C700600512172380ED22DC
:0A188200E4901E68F0D2E9D2AF2214
:10164600AD0790E678E020E6F9C2E990E678E04456
:1016560080F0ED25E090E679F090E678E030E0F96C
:1016660090E678E04440F090E678E020E6F990E6EF
:0816760078E030E1D6D2E92250
:10160C00AC0790E678E020E6F9901E68E07029902F
:10161C00E678E04480F0AF04EF25E090E679F090B6
:10162C001E63EDF0AF03A9077B01A31212F6E49041
:0A163C001E67F0A304F0D322C322BE
:1015CF00AC0790E678E020E6F9901E68E0702C906A
:1015DF00E678E04480F0AF04EF25E0440190E6792F
:1015EF00F0901E63EDF0AF03A9077B01A31212F673
:0D15FF00E4901E67F0A37403F0D322C32212
:03004B00020ED0D2
:100ED000C0E0C083C082C085C084C086758600C063
:100EE000D075D000C000C001C002C003C00790E6AA
:100EF00078E030E209901E687406F0020FF290E686
:100F000078E020E10E901E68E0640260067407F04D
:100F1000020FF2901E68E024FE607614604424FE06
:100F20007003020FDF24FC7003020FED240860033E
:100F3000020FF2901E641212ED901E67E0FF04F0A3
:100F40008F8275830012124590E679F0901E63E05F
:100F5000FF901E67E06F6003020FF2A37405F002BA
:100F60000FF290E679E0FF901E641212ED901E677A
:100F7000E0F582758300EF121284901E687402F00F
:100F8000901E63E06401706A90E678E04420F0808F
:100F900061901E63E024FEFF901E67E0B507079096
:100FA000E678E04420F0901E63E014FF901E67E0B6
:100FB000B5070C90E678E04440F0901E68E4F090AD
:100FC000E679E0FF901E641212ED901E67E0F58254
:100FD000758300EF121284901E67E004F080139076
:100FE000E678E04440F0901E68E4F08005901E68CA
:100FF000E4F05391DFD007D003D002D001D000D06D
:0E100000D0D086D084D085D082D083D0E0328C
:101734001215CF901E68E024FA6010146006240786
:1017440070F1D322E4901E68F0D322E4901E68F076
:02175400D3229E
:1017560012160C901E68E024FA6010146006240726
:1017660070F1D322E4901E68F0D322E4901E68F054
:02177600D3227C
:101723007400F58690FDA57C05A3E582458370F9D9
:011733002293
:03004300021300A5
:0300530002130095
:101300000217980002181A00021804000217D400ED
:101310000213B80002141E000218A5000218A6004D
:101320000218A7000218A8000218A9000218AA00B3
:101330000218AB000218AC000218AD000218AE0093
:101340000218AF000218A6000218B0000218B1007F
:101350000218B2000218B3000218B4000218B50057
:101360000218B6000218A6000218A6000218A6006D
:101370000218B7000218B8000218B9000218BA0023
:101380000218BB000218BC000218BD000218BE0003
:101390000218BF000218C0000218C1000218C200E3
:1013A0000218C3000218C4000218C5000218C600C3
:0813B0000218C7000218C80072
:10177800E4901E00F0FFFE74012FF582E4341EF59C
:0F1788008374CCF00FBF00010EEF64204E70E8A9
:01179700222F
:1017EC00901E00E0541F2401F582E4341EF583EFB3
:0817FC00F0901E00E004F02251
:1017B700526F6D546F6F6C004D6179203234203257
:0D17C7003030362031323A30353A343700B8
:0B113900901E47EBF0A3EAF0A3E9F0E2
:10114400E4901E4DF0A3F0901E4DE0FEA3E0FFC31B
:10115400EE648094815024901E4AE0FBA3E0FAA33D
:10116400E0F98F828E831212456018901E4EE004BF
:10117400F07006901E4DE004F080CC901E4DE4F01B
:10118400A304F0901E47E0FBA3E0FAA3E0F9901E4D
:101194003FE0FF04F0EF75F003A42421F582E4346A
:1011A4001EF583EBF0A3EAF0A3E9F0901E4EE0FFF6
:1011B4002F2402FF901E47E0FBA3E475F0011212F6
:1011C400A6A9F0FAEF121272901E47E0FBA3E47591
:1011D400F0011212A6A9F0FA7403121272E4FFFECF
:1011E400D3901E4EE09FEE6480F8901E4DE0648024
:1011F400984042901E4AE0FBA3E0FAA3E0F98F82F4
:101204008E83121245FD901E47E0FBA3E475F001A6
:101214001212A6A9F0FAED121272901E47E0FBA377
:10122400E475F0011212A6A9F0FAE41212720FBFCB
:1012340000010E80AB901E47E0FBA3E0FAA3E0F9A7
:011244002287
:10167E00901E447401F0A374E0F0A37494F0901ED5
:10168E003FE0FEEFC39E40077B007A00790022EF19
:10169E0075F003A42421F582E4341EF583E0FBA348
:0516AE00E0FAA3E0F9E1
:0116B3002214
:10008000901E447401F0A374E0F0A37400F0901E7D
:1000900044E0FBA3E0FAA3E0F97412121272901E7E
:1000A00044E0FBA3E0FAA3E0F9900001740112120E
:1000B00084900002741212128490000374051212CC
:1000C0008490000474FF12128490000574FF1212D1
:1000D0008490000674FF121284900007744012127C
:1000E0008490000874B412128490000974041212EF
:1000F0008490000A741312128490000B74861212FA
:100100008490000C740412128490000DE412128486
:1001100090000EE412128490000F74011212849069
:100120000010740112128490001174011212849054
:100130001E447401F0A374E0F0A37420F0901E44F8
:10014000E0FBA3E475F0011212A6A9F0FA740A12FA
:100150001272901E44E0FBA3E475F0011212A6A9EE
:10016000F0FA7406121272901E44E0FBA3E475F0DC
:10017000011212A6A9F0FAE4121272901E44E0FBDA
:10018000A3E475F0011212A6A9F0FA740212127219
:10019000901E44E0FBA3E475F0011212A6A9F0FA48
:1001A00074FF121272901E44E0FBA3E475F001127A
:1001B00012A6A9F0FA74FF121272901E44E0FBA37B
:1001C000E475F0011212A6A9F0FA74FF12127290EF
:1001D0001E44E0FBA3E475F0011212A6A9F0FA7424
:1001E00040121272901E44E0FBA3E475F00112125B
:1001F000A6A9F0FA7401121272901E44E0FBA3E467
:1002000075F0011212A6A9F0FAE41212727B0190A5
:100210001E4404F0A374E0F0A37430F0901E44E098
:10022000FBA3E475F0011212A6A9F0FA74091212E8
:1002300072901E44E0FBA3E475F0011212A6A9F02F
:10024000FA7402121272901E44E0FBA3E475F001EE
:100250001212A6A9F0FA7427121272901E44E0FB43
:10026000A3E475F0011212A6A9F0FAE4121272903A
:100270001E44E0FBA3E475F0011212A6A9F0FA7483
:1002800001121272901E44E0FBA3E475F0011212F9
:10029000A6A9F0FA7401121272901E44E0FBA3E4C6
:1002A00075F0011212A6A9F0FAE4121272901E441F
:1002B000E0FBA3E475F0011212A6A9F0FA74801213
:1002C0001272901E44E0FBA3E475F0011212A6A97D
:1002D000F0FA7432121272901E44E0FBA3E475F03F
:1002E000011212A6A9F0FA7409121272901E44E0CB
:1002F000FBA3E475F0011212A6A9F0FA740412121D
:1003000072901E44E0FBA3E475F0011212A6A9F05E
:10031000FAE4121272901E44E0FBA3E475F001129D
:1003200012A6A9F0FAE4121272901E44E0FBA3E4B4
:1003300075F0011212A6A9F0FA7403121272901E3F
:1003400044E0FBA3E475F0011212A6A9F0FA74FFD1
:10035000121272901E44E0FBA3E475F0011212A683
:10036000A9F0FA74FF121272901E44E0FBA3E47528
:10037000F0011212A6A9F0FA74FF121272901E4434
:10038000E0FBA3E475F0011212A6A9F0FAE4121240
:1003900072901E44E0FBA3E475F0011212A6A9F0CE
:1003A000FA7407121272901E44E0FBA3E475F00188
:1003B0001212A6A9F0FA7405121272901E44E0FB04
:1003C000A3E475F0011212A6A9F0FA7401121272D8
:1003D000901E44E0FBA3E475F0011212A6A9F0FA06
:1003E0007402121272901E44E0FBA3E475F0011235
:1003F00012A6A9F0FA7440121272901E44E0FBA3F8
:10040000E475F0011212A6A9F0FAE4121272901E1D
:1004100044E0FBA3E475F0011212A6A9F0FAE4127D
:100420001272901E44E0FBA3E475F0011212A6A91B
:10043000F0FA7407121272901E44E0FBA3E475F008
:10044000011212A6A9F0FA7405121272901E44E06D
:10045000FBA3E475F0011212A6A9F0FA748112123E
:1004600072901E44E0FBA3E475F0011212A6A9F0FD
:10047000FA7402121272901E44E0FBA3E475F001BC
:100480001212A6A9F0FA7440121272901E44E0FBF8
:10049000A3E475F0011212A6A9F0FAE41212729008
:1004A0001E44E0FBA3E475F0011212A6A9F0FAE4E1
:1004B000121272901E44E0FBA3E475F0011212A622
:1004C000A9F0FA7407121272901E44E0FBA3E475BF
:1004D000F0011212A6A9F0FA7405121272901E44CD
:1004E000E0FBA3E475F0011212A6A9F0FA748212DF
:1004F0001272901E44E0FBA3E475F0011212A6A94B
:10050000F0FA7402121272901E44E0FBA3E475F03C
:10051000011212A6A9F0FAE4121272901E44E0FB36
:10052000A3E475F0011212A6A9F0FA740212127275
:10053000901E44E0FBA3E475F0011212A6A9F0FAA4
:10054000E41212727B01901E4404F0A374E0F0A345
:100550007462F0901E44E0FBA3E475F0011212A651
:10056000A9F0FA7409121272901E44E0FBA3E4751C
:10057000F0011212A6A9F0FA7402121272901E442F
:10058000E0FBA3E475F0011212A6A9F0FA74271299
:100590001272901E44E0FBA3E475F0011212A6A9AA
:1005A000F0FAE4121272901E44E0FBA3E475F0012D
:1005B0001212A6A9F0FA7401121272901E44E0FB06
:1005C000A3E475F0011212A6A9F0FA7401121272D6
:1005D000901E44E0FBA3E475F0011212A6A9F0FA04
:1005E000E4121272901E44E0FBA3E475F0011212B3
:1005F000A6A9F0FA7480121272901E44E0FBA3E4E4
:1006000075F0011212A6A9F0FA7432121272901E3D
:1006100044E0FBA3E475F0011212A6A9F0FA7409F4
:10062000121272901E44E0FBA3E475F0011212A6B0
:10063000A9F0FA7404121272901E44E0FBA3E47550
:10064000F0011212A6A9F0FAE4121272901E44E010
:10065000FBA3E475F0011212A6A9F0FAE4121272DB
:10066000901E44E0FBA3E475F0011212A6A9F0FA73
:100670007403121272901E44E0FBA3E475F00112A1
:1006800012A6A9F0FA74FF121272901E44E0FBA3A6
:10069000E475F0011212A6A9F0FA74FF121272901A
:1006A0001E44E0FBA3E475F0011212A6A9F0FA744F
:1006B000FF121272901E44E0FBA3E475F0011212C7
:1006C000A6A9F0FAE4121272901E44E0FBA3E475AE
:1006D000F0011212A6A9F0FA7407121272901E44C9
:1006E000E0FBA3E475F0011212A6A9F0FA7405125A
:1006F0001272901E44E0FBA3E475F0011212A6A949
:10070000F0FA7401121272901E44E0FBA3E475F03B
:10071000011212A6A9F0FA7402121272901E44E09D
:10072000FBA3E475F0011212A6A9F0FA74401212AC
:1007300072901E44E0FBA3E475F0011212A6A9F02A
:10074000FAE4121272901E44E0FBA3E475F0011269
:1007500012A6A9F0FAE4121272901E44E0FBA3E480
:1007600075F0011212A6A9F0FA7407121272901E07
:1007700044E0FBA3E475F0011212A6A9F0FA740597
:10078000121272901E44E0FBA3E475F0011212A64F
:10079000A9F0FA7481121272901E44E0FBA3E47572
:1007A000F0011212A6A9F0FA7402121272901E44FD
:1007B000E0FBA3E475F0011212A6A9F0FA7440124E
:1007C0001272901E44E0FBA3E475F0011212A6A978
:1007D000F0FAE4121272901E44E0FBA3E475F001FB
:1007E0001212A6A9F0FAE4121272901E44E0FBA3C2
:1007F000E475F0011212A6A9F0FA740712127290B1
:100800001E44E0FBA3E475F0011212A6A9F0FA74ED
:1008100005121272901E44E0FBA3E475F00112125F
:10082000A6A9F0FA7482121272901E44E0FBA3E4AF
:1008300075F0011212A6A9F0FA7402121272901E3B
:1008400044E0FBA3E475F0011212A6A9F0FA74408B
:10085000121272901E44E0FBA3E475F0011212A67E
:10086000A9F0FAE4121272901E44E0FBA3E475F0C2
:10087000011212A6A9F0FAE41212727B017AE07951
:1008800094901E4404F0A3EAF0A3E9F0E4901E3F24
:10089000F0901E4A74FFF0A37417F0A374B7F0121F
:1008A0001139901E44EBF0A3EAF0A3E9F0901E4A40
:1008B00074FFF0A37417F0A374BFF0121139901EE7
:1008C00044EBF0A3EAF0A3E9F0901E447401F0A316
:1008D00074E1F0A37410F0901E44E0FBA3E475F003
:1008E000011212A6A9F0FAE4121272901E44E0FB63
:0F08F000A3E475F0011212A6A9F0FAE412127235
:0108FF0022D6
:030000000218588B
:0C185800787FE4F6D8FD75812002100EA8
:10124500BB010CE58229F582E5833AF583E022505E
:1012550006E92582F8E622BBFE06E92582F8E222A8
:0D126500E58229F582E5833AF583E49322C2
:10127200BB010689828A83F0225002F722BBFE015B
:02128200F32255
:10128400F8BB010DE58229F582E5833AF583E8F0A0
:10129400225006E92582C8F622BBFE05E92582C84C
:0212A400F22234
:1012A600A3F8E0C5F025F0F0E582158270021583FB
:0612B600E0C838F0E82258
:1012BC00A8828583F0D083D0821212D31212D3125B
:1012CC0012D31212D3E473E493A3C583C5F0C58380
:1012DC00C8C582C8F0A3C583C5F0C583C8C582C87C
:0112EC0022DF
:0912ED00E0FBA3E0FAA3E0F92202
:0912F600EBF0A3EAF0A3E9F022F9
:00000001FF
